{
  "_format": "hh-sol-artifact-1",
  "contractName": "Domains",
  "sourceName": "contracts/Domains.sol",
  "abi": [
    {
      "inputs": [
        {
          "internalType": "string",
          "name": "_tld",
          "type": "string"
        }
      ],
      "stateMutability": "payable",
      "type": "constructor"
    },
    {
      "inputs": [],
      "name": "AlreadyRegistered",
      "type": "error"
    },
    {
      "inputs": [
        {
          "internalType": "string",
          "name": "name",
          "type": "string"
        }
      ],
      "name": "InvalidName",
      "type": "error"
    },
    {
      "inputs": [],
      "name": "Unauthorized",
      "type": "error"
    },
    {
      "anonymous": false,
      "inputs": [
        {
          "indexed": true,
          "internalType": "address",
          "name": "owner",
          "type": "address"
        },
        {
          "indexed": true,
          "internalType": "address",
          "name": "approved",
          "type": "address"
        },
        {
          "indexed": true,
          "internalType": "uint256",
          "name": "tokenId",
          "type": "uint256"
        }
      ],
      "name": "Approval",
      "type": "event"
    },
    {
      "anonymous": false,
      "inputs": [
        {
          "indexed": true,
          "internalType": "address",
          "name": "owner",
          "type": "address"
        },
        {
          "indexed": true,
          "internalType": "address",
          "name": "operator",
          "type": "address"
        },
        {
          "indexed": false,
          "internalType": "bool",
          "name": "approved",
          "type": "bool"
        }
      ],
      "name": "ApprovalForAll",
      "type": "event"
    },
    {
      "anonymous": false,
      "inputs": [
        {
          "indexed": true,
          "internalType": "address",
          "name": "from",
          "type": "address"
        },
        {
          "indexed": true,
          "internalType": "address",
          "name": "to",
          "type": "address"
        },
        {
          "indexed": true,
          "internalType": "uint256",
          "name": "tokenId",
          "type": "uint256"
        }
      ],
      "name": "Transfer",
      "type": "event"
    },
    {
      "inputs": [
        {
          "internalType": "address",
          "name": "to",
          "type": "address"
        },
        {
          "internalType": "uint256",
          "name": "tokenId",
          "type": "uint256"
        }
      ],
      "name": "approve",
      "outputs": [],
      "stateMutability": "nonpayable",
      "type": "function"
    },
    {
      "inputs": [
        {
          "internalType": "address",
          "name": "owner",
          "type": "address"
        }
      ],
      "name": "balanceOf",
      "outputs": [
        {
          "internalType": "uint256",
          "name": "",
          "type": "uint256"
        }
      ],
      "stateMutability": "view",
      "type": "function"
    },
    {
      "inputs": [
        {
          "internalType": "string",
          "name": "",
          "type": "string"
        }
      ],
      "name": "domains",
      "outputs": [
        {
          "internalType": "address",
          "name": "",
          "type": "address"
        }
      ],
      "stateMutability": "view",
      "type": "function"
    },
    {
      "inputs": [
        {
          "internalType": "string",
          "name": "name",
          "type": "string"
        }
      ],
      "name": "generateJsonData",
      "outputs": [
        {
          "internalType": "string",
          "name": "",
          "type": "string"
        }
      ],
      "stateMutability": "view",
      "type": "function"
    },
    {
      "inputs": [
        {
          "internalType": "string",
          "name": "name",
          "type": "string"
        }
      ],
      "name": "getAddress",
      "outputs": [
        {
          "internalType": "address",
          "name": "",
          "type": "address"
        }
      ],
      "stateMutability": "view",
      "type": "function"
    },
    {
      "inputs": [],
      "name": "getAllNames",
      "outputs": [
        {
          "internalType": "string[]",
          "name": "",
          "type": "string[]"
        }
      ],
      "stateMutability": "view",
      "type": "function"
    },
    {
      "inputs": [
        {
          "internalType": "uint256",
          "name": "tokenId",
          "type": "uint256"
        }
      ],
      "name": "getApproved",
      "outputs": [
        {
          "internalType": "address",
          "name": "",
          "type": "address"
        }
      ],
      "stateMutability": "view",
      "type": "function"
    },
    {
      "inputs": [
        {
          "internalType": "string",
          "name": "name",
          "type": "string"
        }
      ],
      "name": "getRecord",
      "outputs": [
        {
          "internalType": "string",
          "name": "",
          "type": "string"
        }
      ],
      "stateMutability": "view",
      "type": "function"
    },
    {
      "inputs": [
        {
          "internalType": "address",
          "name": "owner",
          "type": "address"
        },
        {
          "internalType": "address",
          "name": "operator",
          "type": "address"
        }
      ],
      "name": "isApprovedForAll",
      "outputs": [
        {
          "internalType": "bool",
          "name": "",
          "type": "bool"
        }
      ],
      "stateMutability": "view",
      "type": "function"
    },
    {
      "inputs": [],
      "name": "isOwner",
      "outputs": [
        {
          "internalType": "bool",
          "name": "",
          "type": "bool"
        }
      ],
      "stateMutability": "view",
      "type": "function"
    },
    {
      "inputs": [],
      "name": "name",
      "outputs": [
        {
          "internalType": "string",
          "name": "",
          "type": "string"
        }
      ],
      "stateMutability": "view",
      "type": "function"
    },
    {
      "inputs": [
        {
          "internalType": "uint256",
          "name": "",
          "type": "uint256"
        }
      ],
      "name": "names",
      "outputs": [
        {
          "internalType": "string",
          "name": "",
          "type": "string"
        }
      ],
      "stateMutability": "view",
      "type": "function"
    },
    {
      "inputs": [],
      "name": "owner",
      "outputs": [
        {
          "internalType": "address payable",
          "name": "",
          "type": "address"
        }
      ],
      "stateMutability": "view",
      "type": "function"
    },
    {
      "inputs": [
        {
          "internalType": "uint256",
          "name": "tokenId",
          "type": "uint256"
        }
      ],
      "name": "ownerOf",
      "outputs": [
        {
          "internalType": "address",
          "name": "",
          "type": "address"
        }
      ],
      "stateMutability": "view",
      "type": "function"
    },
    {
      "inputs": [
        {
          "internalType": "string",
          "name": "name",
          "type": "string"
        }
      ],
      "name": "price",
      "outputs": [
        {
          "internalType": "uint256",
          "name": "",
          "type": "uint256"
        }
      ],
      "stateMutability": "pure",
      "type": "function"
    },
    {
      "inputs": [
        {
          "internalType": "string",
          "name": "",
          "type": "string"
        }
      ],
      "name": "records",
      "outputs": [
        {
          "internalType": "string",
          "name": "",
          "type": "string"
        }
      ],
      "stateMutability": "view",
      "type": "function"
    },
    {
      "inputs": [
        {
          "internalType": "string",
          "name": "finalTokenUri",
          "type": "string"
        },
        {
          "internalType": "string",
          "name": "name",
          "type": "string"
        }
      ],
      "name": "register",
      "outputs": [],
      "stateMutability": "payable",
      "type": "function"
    },
    {
      "inputs": [
        {
          "internalType": "address",
          "name": "from",
          "type": "address"
        },
        {
          "internalType": "address",
          "name": "to",
          "type": "address"
        },
        {
          "internalType": "uint256",
          "name": "tokenId",
          "type": "uint256"
        }
      ],
      "name": "safeTransferFrom",
      "outputs": [],
      "stateMutability": "nonpayable",
      "type": "function"
    },
    {
      "inputs": [
        {
          "internalType": "address",
          "name": "from",
          "type": "address"
        },
        {
          "internalType": "address",
          "name": "to",
          "type": "address"
        },
        {
          "internalType": "uint256",
          "name": "tokenId",
          "type": "uint256"
        },
        {
          "internalType": "bytes",
          "name": "data",
          "type": "bytes"
        }
      ],
      "name": "safeTransferFrom",
      "outputs": [],
      "stateMutability": "nonpayable",
      "type": "function"
    },
    {
      "inputs": [
        {
          "internalType": "address",
          "name": "operator",
          "type": "address"
        },
        {
          "internalType": "bool",
          "name": "approved",
          "type": "bool"
        }
      ],
      "name": "setApprovalForAll",
      "outputs": [],
      "stateMutability": "nonpayable",
      "type": "function"
    },
    {
      "inputs": [
        {
          "internalType": "string",
          "name": "name",
          "type": "string"
        },
        {
          "internalType": "string",
          "name": "record",
          "type": "string"
        }
      ],
      "name": "setRecord",
      "outputs": [],
      "stateMutability": "nonpayable",
      "type": "function"
    },
    {
      "inputs": [
        {
          "internalType": "bytes4",
          "name": "interfaceId",
          "type": "bytes4"
        }
      ],
      "name": "supportsInterface",
      "outputs": [
        {
          "internalType": "bool",
          "name": "",
          "type": "bool"
        }
      ],
      "stateMutability": "view",
      "type": "function"
    },
    {
      "inputs": [],
      "name": "symbol",
      "outputs": [
        {
          "internalType": "string",
          "name": "",
          "type": "string"
        }
      ],
      "stateMutability": "view",
      "type": "function"
    },
    {
      "inputs": [],
      "name": "tld",
      "outputs": [
        {
          "internalType": "string",
          "name": "",
          "type": "string"
        }
      ],
      "stateMutability": "view",
      "type": "function"
    },
    {
      "inputs": [
        {
          "internalType": "uint256",
          "name": "tokenId",
          "type": "uint256"
        }
      ],
      "name": "tokenURI",
      "outputs": [
        {
          "internalType": "string",
          "name": "",
          "type": "string"
        }
      ],
      "stateMutability": "view",
      "type": "function"
    },
    {
      "inputs": [
        {
          "internalType": "address",
          "name": "from",
          "type": "address"
        },
        {
          "internalType": "address",
          "name": "to",
          "type": "address"
        },
        {
          "internalType": "uint256",
          "name": "tokenId",
          "type": "uint256"
        }
      ],
      "name": "transferFrom",
      "outputs": [],
      "stateMutability": "nonpayable",
      "type": "function"
    },
    {
      "inputs": [
        {
          "internalType": "string",
          "name": "name",
          "type": "string"
        }
      ],
      "name": "valid",
      "outputs": [
        {
          "internalType": "bool",
          "name": "",
          "type": "bool"
        }
      ],
      "stateMutability": "pure",
      "type": "function"
    },
    {
      "inputs": [],
      "name": "withdraw",
      "outputs": [],
      "stateMutability": "nonpayable",
      "type": "function"
    }
  ],
  "bytecode": "0x608060405260405180610c400160405280610c1d815260200162005bec610c1d9139600a90816200003191906200051f565b506040518060400160405280600d81526020017f3c2f746578743e3c2f7376673e00000000000000000000000000000000000000815250600b90816200007891906200051f565b50604051620068093803806200680983398181016040528101906200009e91906200076a565b6040518060400160405280601181526020017f46756e6b204e616d6520536572766963650000000000000000000000000000008152506040518060400160405280600481526020017f46554e4b0000000000000000000000000000000000000000000000000000000081525081600090816200011b91906200051f565b5080600190816200012d91906200051f565b50505033600760006101000a81548173ffffffffffffffffffffffffffffffffffffffff021916908373ffffffffffffffffffffffffffffffffffffffff16021790555080600990816200018291906200051f565b50620001cf6040518060400160405280601881526020017f2573206e616d652073657276696365206465706c6f796564000000000000000081525082620001d660201b6200195e1760201c565b5062000848565b620002788282604051602401620001ef9291906200080d565b6040516020818303038152906040527f4b5c4277000000000000000000000000000000000000000000000000000000007bffffffffffffffffffffffffffffffffffffffffffffffffffffffff19166020820180517bffffffffffffffffffffffffffffffffffffffffffffffffffffffff83818316178352505050506200027c60201b60201c565b5050565b60008151905060006a636f6e736f6c652e6c6f679050602083016000808483855afa5050505050565b600081519050919050565b7f4e487b7100000000000000000000000000000000000000000000000000000000600052604160045260246000fd5b7f4e487b7100000000000000000000000000000000000000000000000000000000600052602260045260246000fd5b600060028204905060018216806200032757607f821691505b6020821081036200033d576200033c620002df565b5b50919050565b60008190508160005260206000209050919050565b60006020601f8301049050919050565b600082821b905092915050565b600060088302620003a77fffffffffffffffffffffffffffffffffffffffffffffffffffffffffffffffff8262000368565b620003b3868362000368565b95508019841693508086168417925050509392505050565b6000819050919050565b6000819050919050565b600062000400620003fa620003f484620003cb565b620003d5565b620003cb565b9050919050565b6000819050919050565b6200041c83620003df565b620004346200042b8262000407565b84845462000375565b825550505050565b600090565b6200044b6200043c565b6200045881848462000411565b505050565b5b8181101562000480576200047460008262000441565b6001810190506200045e565b5050565b601f821115620004cf57620004998162000343565b620004a48462000358565b81016020851015620004b4578190505b620004cc620004c38562000358565b8301826200045d565b50505b505050565b600082821c905092915050565b6000620004f460001984600802620004d4565b1980831691505092915050565b60006200050f8383620004e1565b9150826002028217905092915050565b6200052a82620002a5565b67ffffffffffffffff811115620005465762000545620002b0565b5b6200055282546200030e565b6200055f82828562000484565b600060209050601f83116001811462000597576000841562000582578287015190505b6200058e858262000501565b865550620005fe565b601f198416620005a78662000343565b60005b82811015620005d157848901518255600182019150602085019450602081019050620005aa565b86831015620005f15784890151620005ed601f891682620004e1565b8355505b6001600288020188555050505b505050505050565b6000604051905090565b600080fd5b600080fd5b600080fd5b600080fd5b6000601f19601f8301169050919050565b620006408262000624565b810181811067ffffffffffffffff82111715620006625762000661620002b0565b5b80604052505050565b60006200067762000606565b905062000685828262000635565b919050565b600067ffffffffffffffff821115620006a857620006a7620002b0565b5b620006b38262000624565b9050602081019050919050565b60005b83811015620006e0578082015181840152602081019050620006c3565b60008484015250505050565b600062000703620006fd846200068a565b6200066b565b9050828152602081018484840111156200072257620007216200061f565b5b6200072f848285620006c0565b509392505050565b600082601f8301126200074f576200074e6200061a565b5b815162000761848260208601620006ec565b91505092915050565b60006020828403121562000783576200078262000610565b5b600082015167ffffffffffffffff811115620007a457620007a362000615565b5b620007b28482850162000737565b91505092915050565b600082825260208201905092915050565b6000620007d982620002a5565b620007e58185620007bb565b9350620007f7818560208601620006c0565b620008028162000624565b840191505092915050565b60006040820190508181036000830152620008298185620007cc565b905081810360208301526200083f8184620007cc565b90509392505050565b61539480620008586000396000f3fe6080604052600436106101b75760003560e01c80636352211e116100ec578063b88d4fde1161008a578063c87b56dd11610064578063c87b56dd1461065b578063e985e9c514610698578063fb825e5f146106d5578063fe2c619814610700576101b7565b8063b88d4fde146105cc578063bf40fac1146105f5578063c1880a9814610632576101b7565b80638f32d59b116100c65780638f32d59b1461051057806395d89b411461053b5780639791c09714610566578063a22cb465146105a3576101b7565b80636352211e1461046b57806370a08231146104a85780638da5cb5b146104e5576101b7565b806326449235116101595780633ffbd47f116101335780633ffbd47f146103ac57806342842e0e146103c85780634622ab03146103f1578063541e771d1461042e576101b7565b8063264492351461032d5780632d5514321461036a5780633ccfd60b14610395576101b7565b8063095ea7b311610195578063095ea7b3146102615780630e9dcb021461028a57806311dd8845146102c757806323b872dd14610304576101b7565b806301ffc9a7146101bc57806306fdde03146101f9578063081812fc14610224575b600080fd5b3480156101c857600080fd5b506101e360048036038101906101de91906135bf565b61073d565b6040516101f09190613607565b60405180910390f35b34801561020557600080fd5b5061020e61081f565b60405161021b91906136b2565b60405180910390f35b34801561023057600080fd5b5061024b6004803603810190610246919061370a565b6108b1565b6040516102589190613778565b60405180910390f35b34801561026d57600080fd5b50610288600480360381019061028391906137bf565b6108f7565b005b34801561029657600080fd5b506102b160048036038101906102ac9190613864565b610a0e565b6040516102be91906136b2565b60405180910390f35b3480156102d357600080fd5b506102ee60048036038101906102e99190613864565b610b2c565b6040516102fb91906136b2565b60405180910390f35b34801561031057600080fd5b5061032b600480360381019061032691906138b1565b610bdf565b005b34801561033957600080fd5b50610354600480360381019061034f9190613a34565b610c3f565b6040516103619190613778565b60405180910390f35b34801561037657600080fd5b5061037f610c88565b60405161038c91906136b2565b60405180910390f35b3480156103a157600080fd5b506103aa610d16565b005b6103c660048036038101906103c19190613a7d565b610ddc565b005b3480156103d457600080fd5b506103ef60048036038101906103ea91906138b1565b610f2a565b005b3480156103fd57600080fd5b506104186004803603810190610413919061370a565b610f4a565b60405161042591906136b2565b60405180910390f35b34801561043a57600080fd5b5061045560048036038101906104509190613a34565b610fea565b60405161046291906136b2565b60405180910390f35b34801561047757600080fd5b50610492600480360381019061048d919061370a565b6110a0565b60405161049f9190613778565b60405180910390f35b3480156104b457600080fd5b506104cf60048036038101906104ca9190613af9565b611126565b6040516104dc9190613b35565b60405180910390f35b3480156104f157600080fd5b506104fa6111dd565b6040516105079190613b71565b60405180910390f35b34801561051c57600080fd5b50610525611203565b6040516105329190613607565b60405180910390f35b34801561054757600080fd5b5061055061125b565b60405161055d91906136b2565b60405180910390f35b34801561057257600080fd5b5061058d60048036038101906105889190613864565b6112ed565b60405161059a9190613607565b60405180910390f35b3480156105af57600080fd5b506105ca60048036038101906105c59190613bb8565b6113a1565b005b3480156105d857600080fd5b506105f360048036038101906105ee9190613c99565b6113b7565b005b34801561060157600080fd5b5061061c60048036038101906106179190613864565b611419565b6040516106299190613778565b60405180910390f35b34801561063e57600080fd5b5061065960048036038101906106549190613d1c565b611464565b005b34801561066757600080fd5b50610682600480360381019061067d919061370a565b61153f565b60405161068f91906136b2565b60405180910390f35b3480156106a457600080fd5b506106bf60048036038101906106ba9190613d9d565b611651565b6040516106cc9190613607565b60405180910390f35b3480156106e157600080fd5b506106ea6116e5565b6040516106f79190613ee9565b60405180910390f35b34801561070c57600080fd5b5061072760048036038101906107229190613864565b6118c3565b6040516107349190613b35565b60405180910390f35b60007f80ac58cd000000000000000000000000000000000000000000000000000000007bffffffffffffffffffffffffffffffffffffffffffffffffffffffff1916827bffffffffffffffffffffffffffffffffffffffffffffffffffffffff1916148061080857507f5b5e139f000000000000000000000000000000000000000000000000000000007bffffffffffffffffffffffffffffffffffffffffffffffffffffffff1916827bffffffffffffffffffffffffffffffffffffffffffffffffffffffff1916145b806108185750610817826119fa565b5b9050919050565b60606000805461082e90613f3a565b80601f016020809104026020016040519081016040528092919081815260200182805461085a90613f3a565b80156108a75780601f1061087c576101008083540402835291602001916108a7565b820191906000526020600020905b81548152906001019060200180831161088a57829003601f168201915b5050505050905090565b60006108bc82611a64565b6004600083815260200190815260200160002060009054906101000a900473ffffffffffffffffffffffffffffffffffffffff169050919050565b6000610902826110a0565b90508073ffffffffffffffffffffffffffffffffffffffff168373ffffffffffffffffffffffffffffffffffffffff1603610972576040517f08c379a000000000000000000000000000000000000000000000000000000000815260040161096990613fdd565b60405180910390fd5b8073ffffffffffffffffffffffffffffffffffffffff16610991611aaf565b73ffffffffffffffffffffffffffffffffffffffff1614806109c057506109bf816109ba611aaf565b611651565b5b6109ff576040517f08c379a00000000000000000000000000000000000000000000000000000000081526004016109f69061406f565b60405180910390fd5b610a098383611ab7565b505050565b6060600083836009604051602001610a28939291906141a3565b60405160208183030381529060405290506000600a82600b604051602001610a5293929190614205565b60405160208183030381529060405290506000610ab286868080601f016020809104026020016040519081016040528093929190818152602001838380828437600081840152601f19601f82011690508083019250505050505050611b70565b90506000610abf82611d25565b9050600081604051602001610ad49190614236565b60405160208183030381529060405290506000610b1b86610af487611df3565b84604051602001610b07939291906143c9565b604051602081830303815290604052611df3565b905080965050505050505092915050565b6060600d8383604051610b40929190614426565b90815260200160405180910390208054610b5990613f3a565b80601f0160208091040260200160405190810160405280929190818152602001828054610b8590613f3a565b8015610bd25780601f10610ba757610100808354040283529160200191610bd2565b820191906000526020600020905b815481529060010190602001808311610bb557829003601f168201915b5050505050905092915050565b610bf0610bea611aaf565b82611f56565b610c2f576040517f08c379a0000000000000000000000000000000000000000000000000000000008152600401610c26906144b1565b60405180910390fd5b610c3a838383611feb565b505050565b600c818051602081018201805184825260208301602085012081835280955050505050506000915054906101000a900473ffffffffffffffffffffffffffffffffffffffff1681565b60098054610c9590613f3a565b80601f0160208091040260200160405190810160405280929190818152602001828054610cc190613f3a565b8015610d0e5780601f10610ce357610100808354040283529160200191610d0e565b820191906000526020600020905b815481529060010190602001808311610cf157829003601f168201915b505050505081565b610d1e611203565b610d2757600080fd5b600047905060003373ffffffffffffffffffffffffffffffffffffffff1682604051610d5290614502565b60006040518083038185875af1925050503d8060008114610d8f576040519150601f19603f3d011682016040523d82523d6000602084013e610d94565b606091505b5050905080610dd8576040517f08c379a0000000000000000000000000000000000000000000000000000000008152600401610dcf90614589565b60405180910390fd5b5050565b6000610de883836118c3565b905080341015610e2d576040517f08c379a0000000000000000000000000000000000000000000000000000000008152600401610e24906145f5565b60405180910390fd5b6000610e3960086122e4565b9050610e5c60405180606001604052806039815260200161527c603991396122f2565b610e9b6040518060400160405280600f81526020017f46696e616c20746f6b656e5552490a00000000000000000000000000000000008152508661195e565b610ebc6040518060600160405280603981526020016152e6603991396122f2565b610ec6338261238b565b610ed081866123a9565b610eda8484612416565b610ee46008612893565b610f236040518060400160405280601c81526020017f2573206861732072656769737465726564206120646f6d61696e212100000000815250336128a9565b5050505050565b610f45838383604051806020016040528060008152506113b7565b505050565b600e6020528060005260406000206000915090508054610f6990613f3a565b80601f0160208091040260200160405190810160405280929190818152602001828054610f9590613f3a565b8015610fe25780601f10610fb757610100808354040283529160200191610fe2565b820191906000526020600020905b815481529060010190602001808311610fc557829003601f168201915b505050505081565b600d81805160208101820180518482526020830160208501208183528095505050505050600091509050805461101f90613f3a565b80601f016020809104026020016040519081016040528092919081815260200182805461104b90613f3a565b80156110985780601f1061106d57610100808354040283529160200191611098565b820191906000526020600020905b81548152906001019060200180831161107b57829003601f168201915b505050505081565b6000806110ac83612945565b9050600073ffffffffffffffffffffffffffffffffffffffff168173ffffffffffffffffffffffffffffffffffffffff160361111d576040517f08c379a000000000000000000000000000000000000000000000000000000000815260040161111490614661565b60405180910390fd5b80915050919050565b60008073ffffffffffffffffffffffffffffffffffffffff168273ffffffffffffffffffffffffffffffffffffffff1603611196576040517f08c379a000000000000000000000000000000000000000000000000000000000815260040161118d906146f3565b60405180910390fd5b600360008373ffffffffffffffffffffffffffffffffffffffff1673ffffffffffffffffffffffffffffffffffffffff168152602001908152602001600020549050919050565b600760009054906101000a900473ffffffffffffffffffffffffffffffffffffffff1681565b6000600760009054906101000a900473ffffffffffffffffffffffffffffffffffffffff1673ffffffffffffffffffffffffffffffffffffffff163373ffffffffffffffffffffffffffffffffffffffff1614905090565b60606001805461126a90613f3a565b80601f016020809104026020016040519081016040528092919081815260200182805461129690613f3a565b80156112e35780601f106112b8576101008083540402835291602001916112e3565b820191906000526020600020905b8154815290600101906020018083116112c657829003601f168201915b5050505050905090565b6000600361133e84848080601f016020809104026020016040519081016040528093929190818152602001838380828437600081840152601f19601f82011690508083019250505050505050611b70565b101580156113995750600a61139684848080601f016020809104026020016040519081016040528093929190818152602001838380828437600081840152601f19601f82011690508083019250505050505050611b70565b11155b905092915050565b6113b36113ac611aaf565b8383612982565b5050565b6113c86113c2611aaf565b83611f56565b611407576040517f08c379a00000000000000000000000000000000000000000000000000000000081526004016113fe906144b1565b60405180910390fd5b61141384848484612aee565b50505050565b6000600c838360405161142d929190614426565b908152602001604051809103902060009054906101000a900473ffffffffffffffffffffffffffffffffffffffff16905092915050565b600c8484604051611476929190614426565b908152602001604051809103902060009054906101000a900473ffffffffffffffffffffffffffffffffffffffff1673ffffffffffffffffffffffffffffffffffffffff163373ffffffffffffffffffffffffffffffffffffffff1614611509576040517f82b4290000000000000000000000000000000000000000000000000000000000815260040160405180910390fd5b8181600d868660405161151d929190614426565b908152602001604051809103902091826115389291906148b5565b5050505050565b606061154a82611a64565b600060066000848152602001908152602001600020805461156a90613f3a565b80601f016020809104026020016040519081016040528092919081815260200182805461159690613f3a565b80156115e35780601f106115b8576101008083540402835291602001916115e3565b820191906000526020600020905b8154815290600101906020018083116115c657829003601f168201915b5050505050905060006115f4612b4a565b9050600081510361160957819250505061164c565b60008251111561163e578082604051602001611626929190614985565b6040516020818303038152906040529250505061164c565b61164784612b61565b925050505b919050565b6000600560008473ffffffffffffffffffffffffffffffffffffffff1673ffffffffffffffffffffffffffffffffffffffff16815260200190815260200160002060008373ffffffffffffffffffffffffffffffffffffffff1673ffffffffffffffffffffffffffffffffffffffff16815260200190815260200160002060009054906101000a900460ff16905092915050565b60606117256040518060400160405280601f81526020017f47657474696e6720616c6c206e616d65732066726f6d20636f6e7472616374008152506122f2565b600061173160086122e4565b67ffffffffffffffff81111561174a57611749613909565b5b60405190808252806020026020018201604052801561177d57816020015b60608152602001906001900390816117685790505b50905060005b61178d60086122e4565b8110156118bb57600e600082815260200190815260200160002080546117b290613f3a565b80601f01602080910402602001604051908101604052809291908181526020018280546117de90613f3a565b801561182b5780601f106118005761010080835404028352916020019161182b565b820191906000526020600020905b81548152906001019060200180831161180e57829003601f168201915b5050505050828281518110611843576118426149a9565b5b60200260200101819052506118a86040518060400160405280601781526020017f4e616d6520666f7220746f6b656e2025642069732025730000000000000000008152508284848151811061189b5761189a6149a9565b5b6020026020010151612bc9565b80806118b390614a07565b915050611783565b508091505090565b60008061191384848080601f016020809104026020016040519081016040528093929190818152602001838380828437600081840152601f19601f82011690508083019250505050505050611b70565b90506000811161192257600080fd5b6003810361193857640ba43b7400915050611958565b6004810361194e576406fc23ac00915050611958565b6402540be4009150505b92915050565b6119f68282604051602401611974929190614a4f565b6040516020818303038152906040527f4b5c4277000000000000000000000000000000000000000000000000000000007bffffffffffffffffffffffffffffffffffffffffffffffffffffffff19166020820180517bffffffffffffffffffffffffffffffffffffffffffffffffffffffff8381831617835250505050612c68565b5050565b60007f01ffc9a7000000000000000000000000000000000000000000000000000000007bffffffffffffffffffffffffffffffffffffffffffffffffffffffff1916827bffffffffffffffffffffffffffffffffffffffffffffffffffffffff1916149050919050565b611a6d81612c91565b611aac576040517f08c379a0000000000000000000000000000000000000000000000000000000008152600401611aa390614661565b60405180910390fd5b50565b600033905090565b816004600083815260200190815260200160002060006101000a81548173ffffffffffffffffffffffffffffffffffffffff021916908373ffffffffffffffffffffffffffffffffffffffff160217905550808273ffffffffffffffffffffffffffffffffffffffff16611b2a836110a0565b73ffffffffffffffffffffffffffffffffffffffff167f8c5be1e5ebec7d5bd14f71427d1e84f3dd0314c0f7b2291e5b200ac8c7c3b92560405160405180910390a45050565b60008060008084519050600092505b80821015611d1a576000858381518110611b9c57611b9b6149a9565b5b602001015160f81c60f81b9050608060f81b817effffffffffffffffffffffffffffffffffffffffffffffffffffffffffffff19161015611beb57600183611be49190614a86565b9250611d06565b60e060f81b817effffffffffffffffffffffffffffffffffffffffffffffffffffffffffffff19161015611c2d57600283611c269190614a86565b9250611d05565b60f060f81b817effffffffffffffffffffffffffffffffffffffffffffffffffffffffffffff19161015611c6f57600383611c689190614a86565b9250611d04565b60f8801b817effffffffffffffffffffffffffffffffffffffffffffffffffffffffffffff19161015611cb057600483611ca99190614a86565b9250611d03565b60fc60f81b817effffffffffffffffffffffffffffffffffffffffffffffffffffffffffffff19161015611cf257600583611ceb9190614a86565b9250611d02565b600683611cff9190614a86565b92505b5b5b5b5b508280611d1290614a07565b935050611b7f565b829350505050919050565b606060006001611d3484612cd2565b01905060008167ffffffffffffffff811115611d5357611d52613909565b5b6040519080825280601f01601f191660200182016040528015611d855781602001600182028036833780820191505090505b509050600082602001820190505b600115611de8578080600190039150507f3031323334353637383961626364656600000000000000000000000000000000600a86061a8153600a8581611ddc57611ddb614aba565b5b04945060008503611d93575b819350505050919050565b60606000825103611e1557604051806020016040528060008152509050611f51565b600060405180606001604052806040815260200161531f6040913990506000600360028551611e449190614a86565b611e4e9190614ae9565b6004611e5a9190614b1a565b67ffffffffffffffff811115611e7357611e72613909565b5b6040519080825280601f01601f191660200182016040528015611ea55781602001600182028036833780820191505090505b509050600182016020820185865187015b80821015611f11576003820191508151603f8160121c168501518453600184019350603f81600c1c168501518453600184019350603f8160061c168501518453600184019350603f8116850151845360018401935050611eb6565b5050600386510660018114611f2d5760028114611f4057611f48565b603d6001830353603d6002830353611f48565b603d60018303535b50505080925050505b919050565b600080611f62836110a0565b90508073ffffffffffffffffffffffffffffffffffffffff168473ffffffffffffffffffffffffffffffffffffffff161480611fa45750611fa38185611651565b5b80611fe257508373ffffffffffffffffffffffffffffffffffffffff16611fca846108b1565b73ffffffffffffffffffffffffffffffffffffffff16145b91505092915050565b8273ffffffffffffffffffffffffffffffffffffffff1661200b826110a0565b73ffffffffffffffffffffffffffffffffffffffff1614612061576040517f08c379a000000000000000000000000000000000000000000000000000000000815260040161205890614bce565b60405180910390fd5b600073ffffffffffffffffffffffffffffffffffffffff168273ffffffffffffffffffffffffffffffffffffffff16036120d0576040517f08c379a00000000000000000000000000000000000000000000000000000000081526004016120c790614c60565b60405180910390fd5b6120dd8383836001612e25565b8273ffffffffffffffffffffffffffffffffffffffff166120fd826110a0565b73ffffffffffffffffffffffffffffffffffffffff1614612153576040517f08c379a000000000000000000000000000000000000000000000000000000000815260040161214a90614bce565b60405180910390fd5b6004600082815260200190815260200160002060006101000a81549073ffffffffffffffffffffffffffffffffffffffff02191690556001600360008573ffffffffffffffffffffffffffffffffffffffff1673ffffffffffffffffffffffffffffffffffffffff168152602001908152602001600020600082825403925050819055506001600360008473ffffffffffffffffffffffffffffffffffffffff1673ffffffffffffffffffffffffffffffffffffffff16815260200190815260200160002060008282540192505081905550816002600083815260200190815260200160002060006101000a81548173ffffffffffffffffffffffffffffffffffffffff021916908373ffffffffffffffffffffffffffffffffffffffff160217905550808273ffffffffffffffffffffffffffffffffffffffff168473ffffffffffffffffffffffffffffffffffffffff167fddf252ad1be2c89b69c2b068fc378daa952ba7f163c4a11628f55a4df523b3ef60405160405180910390a46122df8383836001612f4b565b505050565b600081600001549050919050565b6123888160405160240161230691906136b2565b6040516020818303038152906040527f41304fac000000000000000000000000000000000000000000000000000000007bffffffffffffffffffffffffffffffffffffffffffffffffffffffff19166020820180517bffffffffffffffffffffffffffffffffffffffffffffffffffffffff8381831617835250505050612c68565b50565b6123a5828260405180602001604052806000815250612f51565b5050565b6123b282612c91565b6123f1576040517f08c379a00000000000000000000000000000000000000000000000000000000081526004016123e890614cf2565b60405180910390fd5b806006600084815260200190815260200160002090816124119190614d12565b505050565b600073ffffffffffffffffffffffffffffffffffffffff16600c8383604051612440929190614426565b908152602001604051809103902060009054906101000a900473ffffffffffffffffffffffffffffffffffffffff1673ffffffffffffffffffffffffffffffffffffffff16146124bc576040517f3a81d6fc00000000000000000000000000000000000000000000000000000000815260040160405180910390fd5b6124c682826112ed565b6125095781816040517f7f19f48d000000000000000000000000000000000000000000000000000000008152600401612500929190614e11565b60405180910390fd5b600061251560086122e4565b90506126096040518060600160405280603181526020016152b56031913984848080601f016020809104026020016040519081016040528093929190818152602001838380828437600081840152601f19601f820116905080830192505050505050506009805461258590613f3a565b80601f01602080910402602001604051908101604052809291908181526020018280546125b190613f3a565b80156125fe5780601f106125d3576101008083540402835291602001916125fe565b820191906000526020600020905b8154815290600101906020018083116125e157829003601f168201915b505050505084612fac565b8282600e6000848152602001908152602001600020918261262b9291906148b5565b5033600c848460405161263f929190614426565b908152602001604051809103902060006101000a81548173ffffffffffffffffffffffffffffffffffffffff021916908373ffffffffffffffffffffffffffffffffffffffff1602179055506126ca6040518060400160405280600881526020017f6e657772656369640000000000000000000000000000000000000000000000008152508261304e565b61288e6040518060400160405280600981526020017f73706c756e67696e670000000000000000000000000000000000000000000000815250600e6000808152602001908152602001600020805461272190613f3a565b80601f016020809104026020016040519081016040528092919081815260200182805461274d90613f3a565b801561279a5780601f1061276f5761010080835404028352916020019161279a565b820191906000526020600020905b81548152906001019060200180831161277d57829003601f168201915b5050505050600c86866040516127b1929190614426565b908152602001604051809103902060009054906101000a900473ffffffffffffffffffffffffffffffffffffffff16600d87876040516127f2929190614426565b9081526020016040518091039020805461280b90613f3a565b80601f016020809104026020016040519081016040528092919081815260200182805461283790613f3a565b80156128845780601f1061285957610100808354040283529160200191612884565b820191906000526020600020905b81548152906001019060200180831161286757829003601f168201915b50505050506130ea565b505050565b6001816000016000828254019250508190555050565b61294182826040516024016128bf929190614e35565b6040516020818303038152906040527f319af333000000000000000000000000000000000000000000000000000000007bffffffffffffffffffffffffffffffffffffffffffffffffffffffff19166020820180517bffffffffffffffffffffffffffffffffffffffffffffffffffffffff8381831617835250505050612c68565b5050565b60006002600083815260200190815260200160002060009054906101000a900473ffffffffffffffffffffffffffffffffffffffff169050919050565b8173ffffffffffffffffffffffffffffffffffffffff168373ffffffffffffffffffffffffffffffffffffffff16036129f0576040517f08c379a00000000000000000000000000000000000000000000000000000000081526004016129e790614eb1565b60405180910390fd5b80600560008573ffffffffffffffffffffffffffffffffffffffff1673ffffffffffffffffffffffffffffffffffffffff16815260200190815260200160002060008473ffffffffffffffffffffffffffffffffffffffff1673ffffffffffffffffffffffffffffffffffffffff16815260200190815260200160002060006101000a81548160ff0219169083151502179055508173ffffffffffffffffffffffffffffffffffffffff168373ffffffffffffffffffffffffffffffffffffffff167f17307eab39ab6107e8899845ad3d59bd9653f200f220920489ca2b5937696c3183604051612ae19190613607565b60405180910390a3505050565b612af9848484611feb565b612b058484848461318c565b612b44576040517f08c379a0000000000000000000000000000000000000000000000000000000008152600401612b3b90614f43565b60405180910390fd5b50505050565b606060405180602001604052806000815250905090565b6060612b6c82611a64565b6000612b76612b4a565b90506000815111612b965760405180602001604052806000815250612bc1565b80612ba084611d25565b604051602001612bb1929190614985565b6040516020818303038152906040525b915050919050565b612c63838383604051602401612be193929190614f63565b6040516020818303038152906040527f5970e089000000000000000000000000000000000000000000000000000000007bffffffffffffffffffffffffffffffffffffffffffffffffffffffff19166020820180517bffffffffffffffffffffffffffffffffffffffffffffffffffffffff8381831617835250505050612c68565b505050565b60008151905060006a636f6e736f6c652e6c6f679050602083016000808483855afa5050505050565b60008073ffffffffffffffffffffffffffffffffffffffff16612cb383612945565b73ffffffffffffffffffffffffffffffffffffffff1614159050919050565b600080600090507a184f03e93ff9f4daa797ed6e38ed64bf6a1f0100000000000000008310612d30577a184f03e93ff9f4daa797ed6e38ed64bf6a1f0100000000000000008381612d2657612d25614aba565b5b0492506040810190505b6d04ee2d6d415b85acef81000000008310612d6d576d04ee2d6d415b85acef81000000008381612d6357612d62614aba565b5b0492506020810190505b662386f26fc100008310612d9c57662386f26fc100008381612d9257612d91614aba565b5b0492506010810190505b6305f5e1008310612dc5576305f5e1008381612dbb57612dba614aba565b5b0492506008810190505b6127108310612dea576127108381612de057612ddf614aba565b5b0492506004810190505b60648310612e0d5760648381612e0357612e02614aba565b5b0492506002810190505b600a8310612e1c576001810190505b80915050919050565b6001811115612f4557600073ffffffffffffffffffffffffffffffffffffffff168473ffffffffffffffffffffffffffffffffffffffff1614612eb95780600360008673ffffffffffffffffffffffffffffffffffffffff1673ffffffffffffffffffffffffffffffffffffffff1681526020019081526020016000206000828254612eb19190614fa8565b925050819055505b600073ffffffffffffffffffffffffffffffffffffffff168373ffffffffffffffffffffffffffffffffffffffff1614612f445780600360008573ffffffffffffffffffffffffffffffffffffffff1673ffffffffffffffffffffffffffffffffffffffff1681526020019081526020016000206000828254612f3c9190614a86565b925050819055505b5b50505050565b50505050565b612f5b8383613313565b612f68600084848461318c565b612fa7576040517f08c379a0000000000000000000000000000000000000000000000000000000008152600401612f9e90614f43565b60405180910390fd5b505050565b61304884848484604051602401612fc69493929190614fdc565b6040516020818303038152906040527f8eafb02b000000000000000000000000000000000000000000000000000000007bffffffffffffffffffffffffffffffffffffffffffffffffffffffff19166020820180517bffffffffffffffffffffffffffffffffffffffffffffffffffffffff8381831617835250505050612c68565b50505050565b6130e68282604051602401613064929190615036565b6040516020818303038152906040527fb60e72cc000000000000000000000000000000000000000000000000000000007bffffffffffffffffffffffffffffffffffffffffffffffffffffffff19166020820180517bffffffffffffffffffffffffffffffffffffffffffffffffffffffff8381831617835250505050612c68565b5050565b613186848484846040516024016131049493929190615066565b6040516020818303038152906040527feb1bff80000000000000000000000000000000000000000000000000000000007bffffffffffffffffffffffffffffffffffffffffffffffffffffffff19166020820180517bffffffffffffffffffffffffffffffffffffffffffffffffffffffff8381831617835250505050612c68565b50505050565b60006131ad8473ffffffffffffffffffffffffffffffffffffffff16613530565b15613306578373ffffffffffffffffffffffffffffffffffffffff1663150b7a026131d6611aaf565b8786866040518563ffffffff1660e01b81526004016131f89493929190615115565b6020604051808303816000875af192505050801561323457506040513d601f19601f820116820180604052508101906132319190615176565b60015b6132b6573d8060008114613264576040519150601f19603f3d011682016040523d82523d6000602084013e613269565b606091505b5060008151036132ae576040517f08c379a00000000000000000000000000000000000000000000000000000000081526004016132a590614f43565b60405180910390fd5b805181602001fd5b63150b7a0260e01b7bffffffffffffffffffffffffffffffffffffffffffffffffffffffff1916817bffffffffffffffffffffffffffffffffffffffffffffffffffffffff19161491505061330b565b600190505b949350505050565b600073ffffffffffffffffffffffffffffffffffffffff168273ffffffffffffffffffffffffffffffffffffffff1603613382576040517f08c379a0000000000000000000000000000000000000000000000000000000008152600401613379906151ef565b60405180910390fd5b61338b81612c91565b156133cb576040517f08c379a00000000000000000000000000000000000000000000000000000000081526004016133c29061525b565b60405180910390fd5b6133d9600083836001612e25565b6133e281612c91565b15613422576040517f08c379a00000000000000000000000000000000000000000000000000000000081526004016134199061525b565b60405180910390fd5b6001600360008473ffffffffffffffffffffffffffffffffffffffff1673ffffffffffffffffffffffffffffffffffffffff16815260200190815260200160002060008282540192505081905550816002600083815260200190815260200160002060006101000a81548173ffffffffffffffffffffffffffffffffffffffff021916908373ffffffffffffffffffffffffffffffffffffffff160217905550808273ffffffffffffffffffffffffffffffffffffffff16600073ffffffffffffffffffffffffffffffffffffffff167fddf252ad1be2c89b69c2b068fc378daa952ba7f163c4a11628f55a4df523b3ef60405160405180910390a461352c600083836001612f4b565b5050565b6000808273ffffffffffffffffffffffffffffffffffffffff163b119050919050565b6000604051905090565b600080fd5b600080fd5b60007fffffffff0000000000000000000000000000000000000000000000000000000082169050919050565b61359c81613567565b81146135a757600080fd5b50565b6000813590506135b981613593565b92915050565b6000602082840312156135d5576135d461355d565b5b60006135e3848285016135aa565b91505092915050565b60008115159050919050565b613601816135ec565b82525050565b600060208201905061361c60008301846135f8565b92915050565b600081519050919050565b600082825260208201905092915050565b60005b8381101561365c578082015181840152602081019050613641565b60008484015250505050565b6000601f19601f8301169050919050565b600061368482613622565b61368e818561362d565b935061369e81856020860161363e565b6136a781613668565b840191505092915050565b600060208201905081810360008301526136cc8184613679565b905092915050565b6000819050919050565b6136e7816136d4565b81146136f257600080fd5b50565b600081359050613704816136de565b92915050565b6000602082840312156137205761371f61355d565b5b600061372e848285016136f5565b91505092915050565b600073ffffffffffffffffffffffffffffffffffffffff82169050919050565b600061376282613737565b9050919050565b61377281613757565b82525050565b600060208201905061378d6000830184613769565b92915050565b61379c81613757565b81146137a757600080fd5b50565b6000813590506137b981613793565b92915050565b600080604083850312156137d6576137d561355d565b5b60006137e4858286016137aa565b92505060206137f5858286016136f5565b9150509250929050565b600080fd5b600080fd5b600080fd5b60008083601f840112613824576138236137ff565b5b8235905067ffffffffffffffff81111561384157613840613804565b5b60208301915083600182028301111561385d5761385c613809565b5b9250929050565b6000806020838503121561387b5761387a61355d565b5b600083013567ffffffffffffffff81111561389957613898613562565b5b6138a58582860161380e565b92509250509250929050565b6000806000606084860312156138ca576138c961355d565b5b60006138d8868287016137aa565b93505060206138e9868287016137aa565b92505060406138fa868287016136f5565b9150509250925092565b600080fd5b7f4e487b7100000000000000000000000000000000000000000000000000000000600052604160045260246000fd5b61394182613668565b810181811067ffffffffffffffff821117156139605761395f613909565b5b80604052505050565b6000613973613553565b905061397f8282613938565b919050565b600067ffffffffffffffff82111561399f5761399e613909565b5b6139a882613668565b9050602081019050919050565b82818337600083830152505050565b60006139d76139d284613984565b613969565b9050828152602081018484840111156139f3576139f2613904565b5b6139fe8482856139b5565b509392505050565b600082601f830112613a1b57613a1a6137ff565b5b8135613a2b8482602086016139c4565b91505092915050565b600060208284031215613a4a57613a4961355d565b5b600082013567ffffffffffffffff811115613a6857613a67613562565b5b613a7484828501613a06565b91505092915050565b600080600060408486031215613a9657613a9561355d565b5b600084013567ffffffffffffffff811115613ab457613ab3613562565b5b613ac086828701613a06565b935050602084013567ffffffffffffffff811115613ae157613ae0613562565b5b613aed8682870161380e565b92509250509250925092565b600060208284031215613b0f57613b0e61355d565b5b6000613b1d848285016137aa565b91505092915050565b613b2f816136d4565b82525050565b6000602082019050613b4a6000830184613b26565b92915050565b6000613b5b82613737565b9050919050565b613b6b81613b50565b82525050565b6000602082019050613b866000830184613b62565b92915050565b613b95816135ec565b8114613ba057600080fd5b50565b600081359050613bb281613b8c565b92915050565b60008060408385031215613bcf57613bce61355d565b5b6000613bdd858286016137aa565b9250506020613bee85828601613ba3565b9150509250929050565b600067ffffffffffffffff821115613c1357613c12613909565b5b613c1c82613668565b9050602081019050919050565b6000613c3c613c3784613bf8565b613969565b905082815260208101848484011115613c5857613c57613904565b5b613c638482856139b5565b509392505050565b600082601f830112613c8057613c7f6137ff565b5b8135613c90848260208601613c29565b91505092915050565b60008060008060808587031215613cb357613cb261355d565b5b6000613cc1878288016137aa565b9450506020613cd2878288016137aa565b9350506040613ce3878288016136f5565b925050606085013567ffffffffffffffff811115613d0457613d03613562565b5b613d1087828801613c6b565b91505092959194509250565b60008060008060408587031215613d3657613d3561355d565b5b600085013567ffffffffffffffff811115613d5457613d53613562565b5b613d608782880161380e565b9450945050602085013567ffffffffffffffff811115613d8357613d82613562565b5b613d8f8782880161380e565b925092505092959194509250565b60008060408385031215613db457613db361355d565b5b6000613dc2858286016137aa565b9250506020613dd3858286016137aa565b9150509250929050565b600081519050919050565b600082825260208201905092915050565b6000819050602082019050919050565b600082825260208201905092915050565b6000613e2582613622565b613e2f8185613e09565b9350613e3f81856020860161363e565b613e4881613668565b840191505092915050565b6000613e5f8383613e1a565b905092915050565b6000602082019050919050565b6000613e7f82613ddd565b613e898185613de8565b935083602082028501613e9b85613df9565b8060005b85811015613ed75784840389528151613eb88582613e53565b9450613ec383613e67565b925060208a01995050600181019050613e9f565b50829750879550505050505092915050565b60006020820190508181036000830152613f038184613e74565b905092915050565b7f4e487b7100000000000000000000000000000000000000000000000000000000600052602260045260246000fd5b60006002820490506001821680613f5257607f821691505b602082108103613f6557613f64613f0b565b5b50919050565b7f4552433732313a20617070726f76616c20746f2063757272656e74206f776e6560008201527f7200000000000000000000000000000000000000000000000000000000000000602082015250565b6000613fc760218361362d565b9150613fd282613f6b565b604082019050919050565b60006020820190508181036000830152613ff681613fba565b9050919050565b7f4552433732313a20617070726f76652063616c6c6572206973206e6f7420746f60008201527f6b656e206f776e6572206f7220617070726f76656420666f7220616c6c000000602082015250565b6000614059603d8361362d565b915061406482613ffd565b604082019050919050565b600060208201905081810360008301526140888161404c565b9050919050565b600081905092915050565b60006140a6838561408f565b93506140b38385846139b5565b82840190509392505050565b7f2e00000000000000000000000000000000000000000000000000000000000000600082015250565b60006140f560018361408f565b9150614100826140bf565b600182019050919050565b60008190508160005260206000209050919050565b6000815461412d81613f3a565b614137818661408f565b9450600182166000811461415257600181146141675761419a565b60ff198316865281151582028601935061419a565b6141708561410b565b60005b8381101561419257815481890152600182019150602081019050614173565b838801955050505b50505092915050565b60006141b082858761409a565b91506141bb826140e8565b91506141c78284614120565b9150819050949350505050565b60006141df82613622565b6141e9818561408f565b93506141f981856020860161363e565b80840191505092915050565b60006142118286614120565b915061421d82856141d4565b91506142298284614120565b9150819050949350505050565b600061424282846141d4565b915081905092915050565b7f7b226e616d65223a202200000000000000000000000000000000000000000000600082015250565b6000614283600a8361408f565b915061428e8261424d565b600a82019050919050565b7f222c20226465736372697074696f6e223a20224120646f6d61696e206f6e207460008201527f68652046756e6b206e616d652073657276696365222c2022696d616765223a2060208201527f22646174613a696d6167652f7376672b786d6c3b6261736536342c0000000000604082015250565b600061431b605b8361408f565b915061432682614299565b605b82019050919050565b7f222c20226c656e677468223a2022000000000000000000000000000000000000600082015250565b6000614367600e8361408f565b915061437282614331565b600e82019050919050565b7f227d000000000000000000000000000000000000000000000000000000000000600082015250565b60006143b360028361408f565b91506143be8261437d565b600282019050919050565b60006143d482614276565b91506143e082866141d4565b91506143eb8261430e565b91506143f782856141d4565b91506144028261435a565b915061440e82846141d4565b9150614419826143a6565b9150819050949350505050565b600061443382848661409a565b91508190509392505050565b7f4552433732313a2063616c6c6572206973206e6f7420746f6b656e206f776e6560008201527f72206f7220617070726f76656400000000000000000000000000000000000000602082015250565b600061449b602d8361362d565b91506144a68261443f565b604082019050919050565b600060208201905081810360008301526144ca8161448e565b9050919050565b600081905092915050565b50565b60006144ec6000836144d1565b91506144f7826144dc565b600082019050919050565b600061450d826144df565b9150819050919050565b7f4661696c656420746f2077697468647261772e2055277665206265656e20736360008201527f616d6d617a656400000000000000000000000000000000000000000000000000602082015250565b600061457360278361362d565b915061457e82614517565b604082019050919050565b600060208201905081810360008301526145a281614566565b9050919050565b7f4e6f7420656e6f756768204d6174696320706169640000000000000000000000600082015250565b60006145df60158361362d565b91506145ea826145a9565b602082019050919050565b6000602082019050818103600083015261460e816145d2565b9050919050565b7f4552433732313a20696e76616c696420746f6b656e2049440000000000000000600082015250565b600061464b60188361362d565b915061465682614615565b602082019050919050565b6000602082019050818103600083015261467a8161463e565b9050919050565b7f4552433732313a2061646472657373207a65726f206973206e6f74206120766160008201527f6c6964206f776e65720000000000000000000000000000000000000000000000602082015250565b60006146dd60298361362d565b91506146e882614681565b604082019050919050565b6000602082019050818103600083015261470c816146d0565b9050919050565b600082905092915050565b60006020601f8301049050919050565b600082821b905092915050565b60006008830261476b7fffffffffffffffffffffffffffffffffffffffffffffffffffffffffffffffff8261472e565b614775868361472e565b95508019841693508086168417925050509392505050565b6000819050919050565b60006147b26147ad6147a8846136d4565b61478d565b6136d4565b9050919050565b6000819050919050565b6147cc83614797565b6147e06147d8826147b9565b84845461473b565b825550505050565b600090565b6147f56147e8565b6148008184846147c3565b505050565b5b81811015614824576148196000826147ed565b600181019050614806565b5050565b601f8211156148695761483a8161410b565b6148438461471e565b81016020851015614852578190505b61486661485e8561471e565b830182614805565b50505b505050565b600082821c905092915050565b600061488c6000198460080261486e565b1980831691505092915050565b60006148a5838361487b565b9150826002028217905092915050565b6148bf8383614713565b67ffffffffffffffff8111156148d8576148d7613909565b5b6148e28254613f3a565b6148ed828285614828565b6000601f83116001811461491c576000841561490a578287013590505b6149148582614899565b86555061497c565b601f19841661492a8661410b565b60005b828110156149525784890135825560018201915060208501945060208101905061492d565b8683101561496f578489013561496b601f89168261487b565b8355505b6001600288020188555050505b50505050505050565b600061499182856141d4565b915061499d82846141d4565b91508190509392505050565b7f4e487b7100000000000000000000000000000000000000000000000000000000600052603260045260246000fd5b7f4e487b7100000000000000000000000000000000000000000000000000000000600052601160045260246000fd5b6000614a12826136d4565b91507fffffffffffffffffffffffffffffffffffffffffffffffffffffffffffffffff8203614a4457614a436149d8565b5b600182019050919050565b60006040820190508181036000830152614a698185613679565b90508181036020830152614a7d8184613679565b90509392505050565b6000614a91826136d4565b9150614a9c836136d4565b9250828201905080821115614ab457614ab36149d8565b5b92915050565b7f4e487b7100000000000000000000000000000000000000000000000000000000600052601260045260246000fd5b6000614af4826136d4565b9150614aff836136d4565b925082614b0f57614b0e614aba565b5b828204905092915050565b6000614b25826136d4565b9150614b30836136d4565b9250828202614b3e816136d4565b91508282048414831517614b5557614b546149d8565b5b5092915050565b7f4552433732313a207472616e736665722066726f6d20696e636f72726563742060008201527f6f776e6572000000000000000000000000000000000000000000000000000000602082015250565b6000614bb860258361362d565b9150614bc382614b5c565b604082019050919050565b60006020820190508181036000830152614be781614bab565b9050919050565b7f4552433732313a207472616e7366657220746f20746865207a65726f2061646460008201527f7265737300000000000000000000000000000000000000000000000000000000602082015250565b6000614c4a60248361362d565b9150614c5582614bee565b604082019050919050565b60006020820190508181036000830152614c7981614c3d565b9050919050565b7f45524337323155524953746f726167653a2055524920736574206f66206e6f6e60008201527f6578697374656e7420746f6b656e000000000000000000000000000000000000602082015250565b6000614cdc602e8361362d565b9150614ce782614c80565b604082019050919050565b60006020820190508181036000830152614d0b81614ccf565b9050919050565b614d1b82613622565b67ffffffffffffffff811115614d3457614d33613909565b5b614d3e8254613f3a565b614d49828285614828565b600060209050601f831160018114614d7c5760008415614d6a578287015190505b614d748582614899565b865550614ddc565b601f198416614d8a8661410b565b60005b82811015614db257848901518255600182019150602085019450602081019050614d8d565b86831015614dcf5784890151614dcb601f89168261487b565b8355505b6001600288020188555050505b505050505050565b6000614df0838561362d565b9350614dfd8385846139b5565b614e0683613668565b840190509392505050565b60006020820190508181036000830152614e2c818486614de4565b90509392505050565b60006040820190508181036000830152614e4f8185613679565b9050614e5e6020830184613769565b9392505050565b7f4552433732313a20617070726f766520746f2063616c6c657200000000000000600082015250565b6000614e9b60198361362d565b9150614ea682614e65565b602082019050919050565b60006020820190508181036000830152614eca81614e8e565b9050919050565b7f4552433732313a207472616e7366657220746f206e6f6e20455243373231526560008201527f63656976657220696d706c656d656e7465720000000000000000000000000000602082015250565b6000614f2d60328361362d565b9150614f3882614ed1565b604082019050919050565b60006020820190508181036000830152614f5c81614f20565b9050919050565b60006060820190508181036000830152614f7d8186613679565b9050614f8c6020830185613b26565b8181036040830152614f9e8184613679565b9050949350505050565b6000614fb3826136d4565b9150614fbe836136d4565b9250828203905081811115614fd657614fd56149d8565b5b92915050565b60006080820190508181036000830152614ff68187613679565b9050818103602083015261500a8186613679565b9050818103604083015261501e8185613679565b905061502d6060830184613b26565b95945050505050565b600060408201905081810360008301526150508185613679565b905061505f6020830184613b26565b9392505050565b600060808201905081810360008301526150808187613679565b905081810360208301526150948186613679565b90506150a36040830185613769565b81810360608301526150b58184613679565b905095945050505050565b600081519050919050565b600082825260208201905092915050565b60006150e7826150c0565b6150f181856150cb565b935061510181856020860161363e565b61510a81613668565b840191505092915050565b600060808201905061512a6000830187613769565b6151376020830186613769565b6151446040830185613b26565b818103606083015261515681846150dc565b905095945050505050565b60008151905061517081613593565b92915050565b60006020828403121561518c5761518b61355d565b5b600061519a84828501615161565b91505092915050565b7f4552433732313a206d696e7420746f20746865207a65726f2061646472657373600082015250565b60006151d960208361362d565b91506151e4826151a3565b602082019050919050565b60006020820190508181036000830152615208816151cc565b9050919050565b7f4552433732313a20746f6b656e20616c7265616479206d696e74656400000000600082015250565b6000615245601c8361362d565b91506152508261520f565b602082019050919050565b6000602082019050818103600083015261527481615238565b905091905056fe0a2d2d2d2d2d2d2d2d2d2d2d2d2d2d2d2d2d2d2d2d2d2d2d2d2d2d2d2d2d2d2d2d2d2d2d2d2d2d2d2d2d2d2d2d2d2d2d2d2d2d2d2d2d2d2d2d5265676973746572696e672025732e2573206f6e2074686520636f6e7472616374207769746820746f6b656e49442025642d2d2d2d2d2d2d2d2d2d2d2d2d2d2d2d2d2d2d2d2d2d2d2d2d2d2d2d2d2d2d2d2d2d2d2d2d2d2d2d2d2d2d2d2d2d2d2d2d2d2d2d2d2d2d2d0a4142434445464748494a4b4c4d4e4f505152535455565758595a6162636465666768696a6b6c6d6e6f707172737475767778797a303132333435363738392b2fa2646970667358221220c221a13a9da768ea16508601a585c7e5ce4ddabf076ae2f8bce9ead1029d7e5964736f6c634300081100333c73766720786d6c6e733d22687474703a2f2f7777772e77332e6f72672f323030302f737667222077696474683d2232373022206865696768743d22323730222066696c6c3d226e6f6e65223e20202020202020202020202020202020202020202020202020202020203c706174682066696c6c3d2275726c282342292220643d224d302030683237307632373048307a222f3e2020202020202020202020202020202020202020202020202020202020202020203c646566733e202020202020202020202020202020202020202020202020202020202020202020202020203c66696c7465722069643d22412220636f6c6f722d696e746572706f6c6174696f6e2d66696c746572733d2273524742222066696c746572556e6974733d227573657253706163654f6e55736522206865696768743d22323730222077696474683d22323730223e20202020202020202020202020202020202020202020202020202020202020202020202020202020203c666544726f70536861646f772064783d2230222064793d22312220737464446576696174696f6e3d22322220666c6f6f642d6f7061636974793d222e323235222077696474683d223230302522206865696768743d2232303025222f3e202020202020202020202020202020202020202020202020202020202020202020202020203c2f66696c7465723e2020202020202020202020202020202020202020202020202020202020202020203c2f646566733e2020202020202020202020202020202020202020202020202020202020202020203c7061746820643d224d37322e3836332034322e393439632d2e3636382d2e3338372d312e3432362d2e35392d322e3139372d2e3539732d312e3532392e3230342d322e3139372e35396c2d31302e303831202020202020202020202020202020202020202020202020202020202020202020362e3033322d362e383520332e3933342d31302e30383120362e303332632d2e3636382e3338372d312e3432362e35392d322e3139372e3539732d312e3532392d2e3230342d322e3139372d2e35396c2d382e3031332d342e373231612020202020202020202020202020202020202020202020202020202020202020342e353220342e35322030203020312d312e3538392d312e363136632d2e3338342d2e3636352d2e3539342d312e3431382d2e3630382d322e313837762d392e3331632d2e3031332d2e3737352e3138352d312e3533382e3537322d322e323038612020202020202020202020202020202020202020202020202020202020202020342e323520342e323520302030203120312e3632352d312e3539356c372e3838342d342e3539632e3636382d2e33383720312e3432362d2e353920322e3139372d2e353973312e3532392e32303420322e3139372e35396c372e38383420342e3539612020202020202020202020202020202020202020202020202020202020202020342e353220342e353220302030203120312e35383920312e363136632e3338342e3636352e35393420312e3431382e36303820322e31383776362e3033326c362e38352d342e303635762d362e303332632e3031332d2e3737352d2e3138352d312e35333820202020202020202020202020202020202020202020202020202020202020202d2e3537322d322e32303861342e323520342e32352030203020302d312e3632352d312e3539354c34312e3435362032342e3539632d2e3636382d2e3338372d312e3432362d2e35392d322e3139372d2e3539732d312e3532392e3230342d322e3139372e35396c20202020202020202020202020202020202020202020202020202020202020202d31342e38363420382e36353561342e323520342e32352030203020302d312e36323520312e353935632d2e3338372e36372d2e35383520312e3433342d2e35373220322e3230387631372e343431632d2e3031332e3737352e31383520312e3533382e353732202020202020202020202020202020202020202020202020202020202020202020322e32303861342e323520342e323520302030203020312e36323520312e3539356c31342e38363420382e363535632e3636382e33383720312e3432362e353920322e3139372e353973312e3532392d2e32303420322e3139372d2e35396c31302e3038312d352e393031202020202020202020202020202020202020202020202020202020202020202020362e38352d342e3036352031302e3038312d352e393031632e3636382d2e33383720312e3432362d2e353920322e3139372d2e353973312e3532392e32303420322e3139372e35396c372e38383420342e353961342e353220342e353220302030203120312e353839202020202020202020202020202020202020202020202020202020202020202020312e363136632e3338342e3636352e35393420312e3431382e36303820322e31383776392e333131632e3031332e3737352d2e31383520312e3533382d2e35373220322e32303861342e323520342e32352030203020312d312e36323520312e3539356c2d372e383834202020202020202020202020202020202020202020202020202020202020202020342e373231632d2e3636382e3338372d312e3432362e35392d322e3139372e3539732d312e3532392d2e3230342d322e3139372d2e35396c2d372e3838342d342e353961342e353220342e35322030203020312d312e3538392d312e363136632d2e3338352d2e36363520202020202020202020202020202020202020202020202020202020202020202d2e3539342d312e3431382d2e3630382d322e313837762d362e3033326c2d362e383520342e30363576362e303332632d2e3031332e3737352e31383520312e3533382e35373220322e32303861342e323520342e323520302030203020312e363235202020202020202020202020202020202020202020202020202020202020202020312e3539356c31342e38363420382e363535632e3636382e33383720312e3432362e353920322e3139372e353973312e3532392d2e32303420322e3139372d2e35396c31342e3836342d382e363535632e3635372d2e33393420312e3230342d2e3935202020202020202020202020202020202020202020202020202020202020202020312e3538392d312e363136732e3539342d312e3431382e3630392d322e3138375635352e353338632e3031332d2e3737352d2e3138352d312e3533382d2e3537322d322e32303861342e323520342e32352030203020302d312e3632352d312e3539356c20202020202020202020202020202020202020202020202020202020202020202d31342e3939332d382e3738367a222066696c6c3d2223666666222f3e2020202020202020202020202020202020202020202020202020202020202020203c646566733e202020202020202020202020202020202020202020202020202020202020202020202020203c6c696e6561724772616469656e742069643d2242222078313d2230222079313d2230222078323d22323730222079323d2232373022206772616469656e74556e6974733d227573657253706163654f6e557365223e20202020202020202020202020202020202020202020202020202020202020202020202020202020203c73746f702073746f702d636f6c6f723d2223636235656565222f3e20202020202020202020202020202020202020202020202020202020202020202020202020202020203c73746f70206f66667365743d2231222073746f702d636f6c6f723d2223306364376534222073746f702d6f7061636974793d222e3939222f3e202020202020202020202020202020202020202020202020202020202020202020202020203c2f6c696e6561724772616469656e743e2020202020202020202020202020202020202020202020202020202020202020203c2f646566733e2020202020202020202020202020202020202020202020202020202020202020203c7465787420783d2233322e352220793d223233312220666f6e742d73697a653d223237222066696c6c3d2223666666222066696c7465723d2275726c282341292220666f6e742d66616d696c793d22506c7573204a616b617274612053616e732c44656a6156752053616e732c4e6f746f20436f6c6f7220456d6f6a692c4170706c6520436f6c6f7220456d6f6a692c73616e732d73657269662220666f6e742d7765696768743d22626f6c64223e",
  "linkReferences": {},
  "deployedLinkReferences": {}
}